{
  "_format": "hh3-artifact-1",
  "contractName": "PaymentLedger",
  "sourceName": "contracts/PaymentLedger.sol",
  "abi": [
    {
      "anonymous": false,
      "inputs": [
        {
          "indexed": true,
          "internalType": "bytes32",
          "name": "paymentHash",
          "type": "bytes32"
        },
        {
          "indexed": false,
          "internalType": "uint256",
          "name": "timestamp",
          "type": "uint256"
        }
      ],
      "name": "PaymentLogged",
      "type": "event"
    },
    {
      "inputs": [
        {
          "internalType": "bytes32",
          "name": "paymentHash",
          "type": "bytes32"
        }
      ],
      "name": "logPayment",
      "outputs": [],
      "stateMutability": "nonpayable",
      "type": "function"
    }
  ],
  "bytecode": "0x608060405234801561001057600080fd5b50610159806100206000396000f3fe608060405234801561001057600080fd5b506004361061002b5760003560e01c8063fb92c84c14610030575b600080fd5b61004a600480360381019061004591906100c2565b61004c565b005b807f140bc6de7544424e03a814df12a1f33cb119ef7a164102535d4fdbb3e69ea83e4260405161007c9190610108565b60405180910390a250565b600080fd5b6000819050919050565b61009f8161008c565b81146100aa57600080fd5b50565b6000813590506100bc81610096565b92915050565b6000602082840312156100d8576100d7610087565b5b60006100e6848285016100ad565b91505092915050565b6000819050919050565b610102816100ef565b82525050565b600060208201905061011d60008301846100f9565b9291505056fea264697066735822122009eeeac035b543c273bfef53cfdb442a6c826e0538073ba1fc64f3a579c90e6564736f6c63430008130033",
  "linkReferences": {},
  "deployedLinkReferences": {},
  "immutableReferences": {},
  "inputSourceName": "project/contracts/PaymentLedger.sol",
  "buildInfoId": "solc-0_8_19-1220e2ddae993d0a50ec1075a30ae39bdefdf27b"
}